{
  "contractName": "BatchTransfer",
  "abi": [
    {
      "inputs": [],
      "stateMutability": "nonpayable",
      "type": "constructor"
    },
    {
      "inputs": [
        {
          "internalType": "address[]",
          "name": "addrs",
          "type": "address[]"
        },
        {
          "internalType": "uint256[]",
          "name": "amounts",
          "type": "uint256[]"
        },
        {
          "internalType": "address",
          "name": "erc20Token",
          "type": "address"
        }
      ],
      "name": "groupTransfer",
      "outputs": [
        {
          "internalType": "bool",
          "name": "",
          "type": "bool"
        }
      ],
      "stateMutability": "nonpayable",
      "type": "function"
    }
  ],
  "bytecode": "0x608060405234801561001057600080fd5b50610a87806100206000396000f3fe608060405234801561001057600080fd5b506004361061002b5760003560e01c80639c24868714610030575b600080fd5b61004a60048036038101906100459190610579565b610060565b60405161005791906107b2565b60405180910390f35b600082826000805b83518110156100d2578381815181106100aa577f4e487b7100000000000000000000000000000000000000000000000000000000600052603260045260246000fd5b6020026020010151826100bd91906108c7565b915080806100ca90610965565b915050610068565b506000829050818173ffffffffffffffffffffffffffffffffffffffff166370a08231336040518263ffffffff1660e01b81526004016101129190610737565b60206040518083038186803b15801561012a57600080fd5b505afa15801561013e573d6000803e3d6000fd5b505050506040513d601f19601f820116820180604052508101906101629190610621565b10156101a3576040517f08c379a000000000000000000000000000000000000000000000000000000000815260040161019a906107cd565b60405180910390fd5b818173ffffffffffffffffffffffffffffffffffffffff1663dd62ed3e33306040518363ffffffff1660e01b81526004016101df929190610752565b60206040518083038186803b1580156101f757600080fd5b505afa15801561020b573d6000803e3d6000fd5b505050506040513d601f19601f8201168201806040525081019061022f9190610621565b1015610270576040517f08c379a00000000000000000000000000000000000000000000000000000000081526004016102679061080d565b60405180910390fd5b600086905060005b88518110156103e85760008273ffffffffffffffffffffffffffffffffffffffff166323b872dd338d85815181106102d9577f4e487b7100000000000000000000000000000000000000000000000000000000600052603260045260246000fd5b60200260200101518d868151811061031a577f4e487b7100000000000000000000000000000000000000000000000000000000600052603260045260246000fd5b60200260200101516040518463ffffffff1660e01b81526004016103409392919061077b565b602060405180830381600087803b15801561035a57600080fd5b505af115801561036e573d6000803e3d6000fd5b505050506040513d601f19601f8201168201806040525081019061039291906105f8565b9050806103d4576040517f08c379a00000000000000000000000000000000000000000000000000000000081526004016103cb906107ed565b60405180910390fd5b5080806103e090610965565b915050610278565b506001955050505050509392505050565b600061040c6104078461085e565b61082d565b9050808382526020820190508285602086028201111561042b57600080fd5b60005b8581101561045b578161044188826104d1565b84526020840193506020830192505060018101905061042e565b5050509392505050565b60006104786104738461088a565b61082d565b9050808382526020820190508285602086028201111561049757600080fd5b60005b858110156104c757816104ad888261054f565b84526020840193506020830192505060018101905061049a565b5050509392505050565b6000813590506104e081610a0c565b92915050565b600082601f8301126104f757600080fd5b81356105078482602086016103f9565b91505092915050565b600082601f83011261052157600080fd5b8135610531848260208601610465565b91505092915050565b60008151905061054981610a23565b92915050565b60008135905061055e81610a3a565b92915050565b60008151905061057381610a3a565b92915050565b60008060006060848603121561058e57600080fd5b600084013567ffffffffffffffff8111156105a857600080fd5b6105b4868287016104e6565b935050602084013567ffffffffffffffff8111156105d157600080fd5b6105dd86828701610510565b92505060406105ee868287016104d1565b9150509250925092565b60006020828403121561060a57600080fd5b60006106188482850161053a565b91505092915050565b60006020828403121561063357600080fd5b600061064184828501610564565b91505092915050565b6106538161091d565b82525050565b6106628161092f565b82525050565b60006106756012836108b6565b91507f42616c616e6365204e6f7420456e6f75676800000000000000000000000000006000830152602082019050919050565b60006106b56019836108b6565b91507f436f756c646e2774207472616e7366657220746f2061646472000000000000006000830152602082019050919050565b60006106f56014836108b6565b91507f4e6f7420416c6c6f77656420746f207370656e640000000000000000000000006000830152602082019050919050565b6107318161095b565b82525050565b600060208201905061074c600083018461064a565b92915050565b6000604082019050610767600083018561064a565b610774602083018461064a565b9392505050565b6000606082019050610790600083018661064a565b61079d602083018561064a565b6107aa6040830184610728565b949350505050565b60006020820190506107c76000830184610659565b92915050565b600060208201905081810360008301526107e681610668565b9050919050565b60006020820190508181036000830152610806816106a8565b9050919050565b60006020820190508181036000830152610826816106e8565b9050919050565b6000604051905081810181811067ffffffffffffffff82111715610854576108536109dd565b5b8060405250919050565b600067ffffffffffffffff821115610879576108786109dd565b5b602082029050602081019050919050565b600067ffffffffffffffff8211156108a5576108a46109dd565b5b602082029050602081019050919050565b600082825260208201905092915050565b60006108d28261095b565b91506108dd8361095b565b9250827fffffffffffffffffffffffffffffffffffffffffffffffffffffffffffffffff03821115610912576109116109ae565b5b828201905092915050565b60006109288261093b565b9050919050565b60008115159050919050565b600073ffffffffffffffffffffffffffffffffffffffff82169050919050565b6000819050919050565b60006109708261095b565b91507fffffffffffffffffffffffffffffffffffffffffffffffffffffffffffffffff8214156109a3576109a26109ae565b5b600182019050919050565b7f4e487b7100000000000000000000000000000000000000000000000000000000600052601160045260246000fd5b7f4e487b7100000000000000000000000000000000000000000000000000000000600052604160045260246000fd5b610a158161091d565b8114610a2057600080fd5b50565b610a2c8161092f565b8114610a3757600080fd5b50565b610a438161095b565b8114610a4e57600080fd5b5056fea2646970667358221220af65869d67d9812216d94a7cff12df2af07fa98dabed4c5c50ae95c44e89e1b864736f6c63430008000033",
  "immutableReferences": {},
  "source": "// SPDX-License-Identifier: MIT\n\npragma solidity ^0.8.0;\nimport \"./IERC20.sol\";\n\n\n// Contract to batch transfer ERC20 tokens\n// msg.sender must allow this contract to spend the tokens by calling approve() on the ERC20 token contract\ncontract BatchTransfer {\n    constructor () {}\n\n\n    modifier erc20TokensAvailable(uint256[] memory amounts, address erc20Token) {\n        uint256 totalAmount = 0;\n        for (uint i = 0; i<amounts.length; i++) {\n            totalAmount += amounts[i];\n        }\n        IERC20 _currency = IERC20(erc20Token);\n        require(_currency.balanceOf(msg.sender) >= totalAmount, \"Balance Not Enough\");\n        require(_currency.allowance(msg.sender, address(this))>=totalAmount, \"Not Allowed to spend\");\n        _;\n    }\n\n    function groupTransfer(address[] memory addrs, uint256[] memory amounts, address erc20Token) public erc20TokensAvailable(amounts, erc20Token) \n    returns(bool) {\n        IERC20 _currency = IERC20(erc20Token);\n        for (uint i = 0; i<amounts.length; i++) {\n            bool _success = _currency.transferFrom(msg.sender, addrs[i], amounts[i]);\n            require(_success, \"Couldn't transfer to addr\");\n        }\n        return true;\n    }\n\n}",
  "sourcePath": "/Users/shubhaankar/github.com/Shubhaankar-Sharma/util-contracts/contracts/batchtransfer.sol",
  "compiler": {
    "name": "solc",
    "version": "0.8.0+commit.c7dfd78e.Emscripten.clang"
  },
  "schemaVersion": "3.4.11",
  "updatedAt": "2023-01-01T00:51:10.519Z",
  "networkType": "ethereum",
  "devdoc": {
    "kind": "dev",
    "methods": {},
    "version": 1
  },
  "userdoc": {
    "kind": "user",
    "methods": {},
    "version": 1
  }
}