{
  "contractName": "USDCFaucet",
  "abi": [
    {
      "inputs": [
        {
          "internalType": "uint256",
          "name": "_vendAmount",
          "type": "uint256"
        }
      ],
      "stateMutability": "nonpayable",
      "type": "constructor"
    },
    {
      "anonymous": false,
      "inputs": [
        {
          "indexed": true,
          "internalType": "address",
          "name": "previousOwner",
          "type": "address"
        },
        {
          "indexed": true,
          "internalType": "address",
          "name": "newOwner",
          "type": "address"
        }
      ],
      "name": "OwnershipTransferred",
      "type": "event"
    },
    {
      "inputs": [],
      "name": "getCreator",
      "outputs": [
        {
          "internalType": "address",
          "name": "",
          "type": "address"
        }
      ],
      "stateMutability": "view",
      "type": "function"
    },
    {
      "inputs": [],
      "name": "getOwner",
      "outputs": [
        {
          "internalType": "address",
          "name": "",
          "type": "address"
        }
      ],
      "stateMutability": "view",
      "type": "function"
    },
    {
      "inputs": [],
      "name": "request",
      "outputs": [],
      "stateMutability": "nonpayable",
      "type": "function"
    },
    {
      "inputs": [
        {
          "internalType": "address",
          "name": "to",
          "type": "address"
        },
        {
          "internalType": "uint256",
          "name": "amount",
          "type": "uint256"
        }
      ],
      "name": "forceWithdraw",
      "outputs": [],
      "stateMutability": "nonpayable",
      "type": "function"
    },
    {
      "inputs": [],
      "name": "balanceLeft",
      "outputs": [
        {
          "internalType": "uint256",
          "name": "",
          "type": "uint256"
        }
      ],
      "stateMutability": "view",
      "type": "function"
    },
    {
      "inputs": [],
      "name": "newUSDCAddr",
      "outputs": [],
      "stateMutability": "nonpayable",
      "type": "function"
    },
    {
      "inputs": [
        {
          "internalType": "uint256",
          "name": "amount",
          "type": "uint256"
        }
      ],
      "name": "increaseSupply",
      "outputs": [],
      "stateMutability": "nonpayable",
      "type": "function"
    },
    {
      "inputs": [
        {
          "internalType": "uint256",
          "name": "amount",
          "type": "uint256"
        }
      ],
      "name": "changeFaucetAmount",
      "outputs": [],
      "stateMutability": "nonpayable",
      "type": "function"
    }
  ],
  "bytecode": "0x60806040523480156200001157600080fd5b506040516200521d3803806200521d8339818101604052810190620000379190620001de565b3333806000806101000a81548173ffffffffffffffffffffffffffffffffffffffff021916908373ffffffffffffffffffffffffffffffffffffffff16021790555081600160006101000a81548173ffffffffffffffffffffffffffffffffffffffff021916908373ffffffffffffffffffffffffffffffffffffffff1602179055508073ffffffffffffffffffffffffffffffffffffffff16600073ffffffffffffffffffffffffffffffffffffffff167f8be0079c531659141344cd1fd0a4f28419497f9722a3daafe3b4186f6b6457e060405160405180910390a35050629896808162000128919062000259565b306040516200013790620001b9565b620001449291906200022c565b604051809103906000f08015801562000161573d6000803e3d6000fd5b50600260006101000a81548173ffffffffffffffffffffffffffffffffffffffff021916908373ffffffffffffffffffffffffffffffffffffffff16021790555080600581905550618ca06004819055505062000341565b611f9e806200327f83390190565b600081519050620001d88162000327565b92915050565b600060208284031215620001f157600080fd5b60006200020184828501620001c7565b91505092915050565b6200021581620002ba565b82525050565b6200022681620002ee565b82525050565b60006040820190506200024360008301856200021b565b6200025260208301846200020a565b9392505050565b60006200026682620002ee565b91506200027383620002ee565b9250817fffffffffffffffffffffffffffffffffffffffffffffffffffffffffffffffff0483118215151615620002af57620002ae620002f8565b5b828202905092915050565b6000620002c782620002ce565b9050919050565b600073ffffffffffffffffffffffffffffffffffffffff82169050919050565b6000819050919050565b7f4e487b7100000000000000000000000000000000000000000000000000000000600052601160045260246000fd5b6200033281620002ee565b81146200033e57600080fd5b50565b612f2e80620003516000396000f3fe60806040523480156200001157600080fd5b5060043610620000945760003560e01c8063a6fb04951162000063578063a6fb04951462000109578063ac7dd4f41462000129578063b921e163146200014b578063e5e3a39b146200016b5762000094565b80630ee2cb101462000099578063338cdca114620000bb578063893d20e814620000c7578063952d879614620000e9575b600080fd5b620000a362000177565b604051620000b2919062000cca565b60405180910390f35b620000c5620001a1565b005b620000d16200042d565b604051620000e0919062000cca565b60405180910390f35b62000107600480360381019062000101919062000aab565b62000456565b005b62000127600480360381019062000121919062000b18565b62000699565b005b6200013362000734565b60405162000142919062000d7a565b60405180910390f35b62000169600480360381019062000163919062000b18565b620007ec565b005b620001756200088b565b005b6000600160009054906101000a900473ffffffffffffffffffffffffffffffffffffffff16905090565b600454600360003373ffffffffffffffffffffffffffffffffffffffff1673ffffffffffffffffffffffffffffffffffffffff16815260200190815260200160002054620001f0919062000dd5565b42101562000235576040517f08c379a00000000000000000000000000000000000000000000000000000000081526004016200022c9062000d58565b60405180910390fd5b60055480600260009054906101000a900473ffffffffffffffffffffffffffffffffffffffff1673ffffffffffffffffffffffffffffffffffffffff166370a08231306040518263ffffffff1660e01b815260040162000296919062000cca565b60206040518083038186803b158015620002af57600080fd5b505afa158015620002c4573d6000803e3d6000fd5b505050506040513d601f19601f82011682018060405250810190620002ea919062000b44565b10156200032e576040517f08c379a0000000000000000000000000000000000000000000000000000000008152600401620003259062000d36565b60405180910390fd5b600260009054906101000a900473ffffffffffffffffffffffffffffffffffffffff1673ffffffffffffffffffffffffffffffffffffffff1663a9059cbb336005546040518363ffffffff1660e01b81526004016200038f92919062000ce7565b602060405180830381600087803b158015620003aa57600080fd5b505af1158015620003bf573d6000803e3d6000fd5b505050506040513d601f19601f82011682018060405250810190620003e5919062000aec565b5042600360003373ffffffffffffffffffffffffffffffffffffffff1673ffffffffffffffffffffffffffffffffffffffff1681526020019081526020016000208190555050565b60008060009054906101000a900473ffffffffffffffffffffffffffffffffffffffff16905090565b60008054906101000a900473ffffffffffffffffffffffffffffffffffffffff1673ffffffffffffffffffffffffffffffffffffffff163373ffffffffffffffffffffffffffffffffffffffff1614620004e7576040517f08c379a0000000000000000000000000000000000000000000000000000000008152600401620004de9062000d14565b60405180910390fd5b8080600260009054906101000a900473ffffffffffffffffffffffffffffffffffffffff1673ffffffffffffffffffffffffffffffffffffffff166370a08231306040518263ffffffff1660e01b815260040162000546919062000cca565b60206040518083038186803b1580156200055f57600080fd5b505afa15801562000574573d6000803e3d6000fd5b505050506040513d601f19601f820116820180604052508101906200059a919062000b44565b1015620005de576040517f08c379a0000000000000000000000000000000000000000000000000000000008152600401620005d59062000d36565b60405180910390fd5b600260009054906101000a900473ffffffffffffffffffffffffffffffffffffffff1673ffffffffffffffffffffffffffffffffffffffff1663a9059cbb84846040518363ffffffff1660e01b81526004016200063d92919062000ce7565b602060405180830381600087803b1580156200065857600080fd5b505af11580156200066d573d6000803e3d6000fd5b505050506040513d601f19601f8201168201806040525081019062000693919062000aec565b50505050565b60008054906101000a900473ffffffffffffffffffffffffffffffffffffffff1673ffffffffffffffffffffffffffffffffffffffff163373ffffffffffffffffffffffffffffffffffffffff16146200072a576040517f08c379a0000000000000000000000000000000000000000000000000000000008152600401620007219062000d14565b60405180910390fd5b8060058190555050565b6000600260009054906101000a900473ffffffffffffffffffffffffffffffffffffffff1673ffffffffffffffffffffffffffffffffffffffff166370a08231306040518263ffffffff1660e01b815260040162000793919062000cca565b60206040518083038186803b158015620007ac57600080fd5b505afa158015620007c1573d6000803e3d6000fd5b505050506040513d601f19601f82011682018060405250810190620007e7919062000b44565b905090565b60008054906101000a900473ffffffffffffffffffffffffffffffffffffffff1673ffffffffffffffffffffffffffffffffffffffff163373ffffffffffffffffffffffffffffffffffffffff16146200087d576040517f08c379a0000000000000000000000000000000000000000000000000000000008152600401620008749062000d14565b60405180910390fd5b6200088881620009ab565b50565b60008054906101000a900473ffffffffffffffffffffffffffffffffffffffff1673ffffffffffffffffffffffffffffffffffffffff163373ffffffffffffffffffffffffffffffffffffffff16146200091c576040517f08c379a0000000000000000000000000000000000000000000000000000000008152600401620009139062000d14565b60405180910390fd5b629896806005546200092f919062000e32565b306040516200093e9062000a41565b6200094b92919062000d97565b604051809103906000f08015801562000968573d6000803e3d6000fd5b50600260006101000a81548173ffffffffffffffffffffffffffffffffffffffff021916908373ffffffffffffffffffffffffffffffffffffffff160217905550565b600260009054906101000a900473ffffffffffffffffffffffffffffffffffffffff1673ffffffffffffffffffffffffffffffffffffffff166340c10f1930836040518363ffffffff1660e01b815260040162000a0a92919062000ce7565b600060405180830381600087803b15801562000a2557600080fd5b505af115801562000a3a573d6000803e3d6000fd5b5050505050565b611f9e8062000f5b83390190565b60008135905062000a608162000f0c565b92915050565b60008151905062000a778162000f26565b92915050565b60008135905062000a8e8162000f40565b92915050565b60008151905062000aa58162000f40565b92915050565b6000806040838503121562000abf57600080fd5b600062000acf8582860162000a4f565b925050602062000ae28582860162000a7d565b9150509250929050565b60006020828403121562000aff57600080fd5b600062000b0f8482850162000a66565b91505092915050565b60006020828403121562000b2b57600080fd5b600062000b3b8482850162000a7d565b91505092915050565b60006020828403121562000b5757600080fd5b600062000b678482850162000a94565b91505092915050565b62000b7b8162000e93565b82525050565b600062000b9060268362000dc4565b91507f4f776e61626c65236f6e6c794f776e65723a2053454e4445525f49535f4e4f5460008301527f5f4f574e455200000000000000000000000000000000000000000000000000006020830152604082019050919050565b600062000bf860258362000dc4565b91507f6e6f7420656e6f7567682062616c616e63652c2070696e6720405f5f73706f6e60008301527f6765626f690000000000000000000000000000000000000000000000000000006020830152604082019050919050565b600062000c6060218362000dc4565b91507f436f6f6c646f776e20313020686f7572732068617665206e6f7420706173736560008301527f64000000000000000000000000000000000000000000000000000000000000006020830152604082019050919050565b62000cc48162000ed3565b82525050565b600060208201905062000ce1600083018462000b70565b92915050565b600060408201905062000cfe600083018562000b70565b62000d0d602083018462000cb9565b9392505050565b6000602082019050818103600083015262000d2f8162000b81565b9050919050565b6000602082019050818103600083015262000d518162000be9565b9050919050565b6000602082019050818103600083015262000d738162000c51565b9050919050565b600060208201905062000d91600083018462000cb9565b92915050565b600060408201905062000dae600083018562000cb9565b62000dbd602083018462000b70565b9392505050565b600082825260208201905092915050565b600062000de28262000ed3565b915062000def8362000ed3565b9250827fffffffffffffffffffffffffffffffffffffffffffffffffffffffffffffffff0382111562000e275762000e2662000edd565b5b828201905092915050565b600062000e3f8262000ed3565b915062000e4c8362000ed3565b9250817fffffffffffffffffffffffffffffffffffffffffffffffffffffffffffffffff048311821515161562000e885762000e8762000edd565b5b828202905092915050565b600062000ea08262000eb3565b9050919050565b60008115159050919050565b600073ffffffffffffffffffffffffffffffffffffffff82169050919050565b6000819050919050565b7f4e487b7100000000000000000000000000000000000000000000000000000000600052601160045260246000fd5b62000f178162000e93565b811462000f2357600080fd5b50565b62000f318162000ea7565b811462000f3d57600080fd5b50565b62000f4b8162000ed3565b811462000f5757600080fd5b5056fe60806040523480156200001157600080fd5b5060405162001f9e38038062001f9e833981810160405281019062000037919062000428565b33336040518060400160405280600481526020017f55534443000000000000000000000000000000000000000000000000000000008152506040518060400160405280600481526020017f55534443000000000000000000000000000000000000000000000000000000008152508160039080519060200190620000bd9291906200034a565b508060049080519060200190620000d69291906200034a565b50505080600560006101000a81548173ffffffffffffffffffffffffffffffffffffffff021916908373ffffffffffffffffffffffffffffffffffffffff16021790555081600660006101000a81548173ffffffffffffffffffffffffffffffffffffffff021916908373ffffffffffffffffffffffffffffffffffffffff1602179055508073ffffffffffffffffffffffffffffffffffffffff16600073ffffffffffffffffffffffffffffffffffffffff167f8be0079c531659141344cd1fd0a4f28419497f9722a3daafe3b4186f6b6457e060405160405180910390a35050620001ca8183620001d260201b60201c565b50506200066f565b600073ffffffffffffffffffffffffffffffffffffffff168273ffffffffffffffffffffffffffffffffffffffff16141562000245576040517f08c379a00000000000000000000000000000000000000000000000000000000081526004016200023c90620004bc565b60405180910390fd5b62000259600083836200034060201b60201c565b80600260008282546200026d91906200050c565b92505081905550806000808473ffffffffffffffffffffffffffffffffffffffff1673ffffffffffffffffffffffffffffffffffffffff168152602001908152602001600020600082825401925050819055508173ffffffffffffffffffffffffffffffffffffffff16600073ffffffffffffffffffffffffffffffffffffffff167fddf252ad1be2c89b69c2b068fc378daa952ba7f163c4a11628f55a4df523b3ef83604051620003209190620004de565b60405180910390a36200033c600083836200034560201b60201c565b5050565b505050565b505050565b8280546200035890620005a7565b90600052602060002090601f0160209004810192826200037c5760008555620003c8565b82601f106200039757805160ff1916838001178555620003c8565b82800160010185558215620003c8579182015b82811115620003c7578251825591602001919060010190620003aa565b5b509050620003d79190620003db565b5090565b5b80821115620003f6576000816000905550600101620003dc565b5090565b6000815190506200040b816200063b565b92915050565b600081519050620004228162000655565b92915050565b600080604083850312156200043c57600080fd5b60006200044c8582860162000411565b92505060206200045f85828601620003fa565b9150509250929050565b600062000478601f83620004fb565b91507f45524332303a206d696e7420746f20746865207a65726f2061646472657373006000830152602082019050919050565b620004b6816200059d565b82525050565b60006020820190508181036000830152620004d78162000469565b9050919050565b6000602082019050620004f56000830184620004ab565b92915050565b600082825260208201905092915050565b600062000519826200059d565b915062000526836200059d565b9250827fffffffffffffffffffffffffffffffffffffffffffffffffffffffffffffffff038211156200055e576200055d620005dd565b5b828201905092915050565b600062000576826200057d565b9050919050565b600073ffffffffffffffffffffffffffffffffffffffff82169050919050565b6000819050919050565b60006002820490506001821680620005c057607f821691505b60208210811415620005d757620005d66200060c565b5b50919050565b7f4e487b7100000000000000000000000000000000000000000000000000000000600052601160045260246000fd5b7f4e487b7100000000000000000000000000000000000000000000000000000000600052602260045260246000fd5b620006468162000569565b81146200065257600080fd5b50565b62000660816200059d565b81146200066c57600080fd5b50565b61191f806200067f6000396000f3fe608060405234801561001057600080fd5b50600436106100f55760003560e01c806340c10f191161009757806395d89b411161006657806395d89b4114610288578063a457c2d7146102a6578063a9059cbb146102d6578063dd62ed3e14610306576100f5565b806340c10f191461020257806342966c681461021e57806370a082311461023a578063893d20e81461026a576100f5565b806318160ddd116100d357806318160ddd1461016657806323b872dd14610184578063313ce567146101b457806339509351146101d2576100f5565b806306fdde03146100fa578063095ea7b3146101185780630ee2cb1014610148575b600080fd5b610102610336565b60405161010f9190611568565b60405180910390f35b610132600480360381019061012d9190611042565b6103c8565b60405161013f919061154d565b60405180910390f35b6101506103eb565b60405161015d9190611532565b60405180910390f35b61016e610415565b60405161017b91906116ea565b60405180910390f35b61019e60048036038101906101999190610ff3565b61041f565b6040516101ab919061154d565b60405180910390f35b6101bc61044e565b6040516101c99190611705565b60405180910390f35b6101ec60048036038101906101e79190611042565b610457565b6040516101f9919061154d565b60405180910390f35b61021c60048036038101906102179190611042565b61048e565b005b6102386004803603810190610233919061107e565b61052c565b005b610254600480360381019061024f9190610f8e565b610539565b60405161026191906116ea565b60405180910390f35b610272610581565b60405161027f9190611532565b60405180910390f35b6102906105ab565b60405161029d9190611568565b60405180910390f35b6102c060048036038101906102bb9190611042565b61063d565b6040516102cd919061154d565b60405180910390f35b6102f060048036038101906102eb9190611042565b6106b4565b6040516102fd919061154d565b60405180910390f35b610320600480360381019061031b9190610fb7565b6106d7565b60405161032d91906116ea565b60405180910390f35b6060600380546103459061181a565b80601f01602080910402602001604051908101604052809291908181526020018280546103719061181a565b80156103be5780601f10610393576101008083540402835291602001916103be565b820191906000526020600020905b8154815290600101906020018083116103a157829003601f168201915b5050505050905090565b6000806103d361075e565b90506103e0818585610766565b600191505092915050565b6000600660009054906101000a900473ffffffffffffffffffffffffffffffffffffffff16905090565b6000600254905090565b60008061042a61075e565b9050610437858285610931565b6104428585856109bd565b60019150509392505050565b60006006905090565b60008061046261075e565b905061048381858561047485896106d7565b61047e919061173c565b610766565b600191505092915050565b600560009054906101000a900473ffffffffffffffffffffffffffffffffffffffff1673ffffffffffffffffffffffffffffffffffffffff163373ffffffffffffffffffffffffffffffffffffffff161461051e576040517f08c379a00000000000000000000000000000000000000000000000000000000081526004016105159061168a565b60405180910390fd5b6105288282610c35565b5050565b6105363382610d8c565b50565b60008060008373ffffffffffffffffffffffffffffffffffffffff1673ffffffffffffffffffffffffffffffffffffffff168152602001908152602001600020549050919050565b6000600560009054906101000a900473ffffffffffffffffffffffffffffffffffffffff16905090565b6060600480546105ba9061181a565b80601f01602080910402602001604051908101604052809291908181526020018280546105e69061181a565b80156106335780601f1061060857610100808354040283529160200191610633565b820191906000526020600020905b81548152906001019060200180831161061657829003601f168201915b5050505050905090565b60008061064861075e565b9050600061065682866106d7565b90508381101561069b576040517f08c379a0000000000000000000000000000000000000000000000000000000008152600401610692906116aa565b60405180910390fd5b6106a88286868403610766565b60019250505092915050565b6000806106bf61075e565b90506106cc8185856109bd565b600191505092915050565b6000600160008473ffffffffffffffffffffffffffffffffffffffff1673ffffffffffffffffffffffffffffffffffffffff16815260200190815260200160002060008373ffffffffffffffffffffffffffffffffffffffff1673ffffffffffffffffffffffffffffffffffffffff16815260200190815260200160002054905092915050565b600033905090565b600073ffffffffffffffffffffffffffffffffffffffff168373ffffffffffffffffffffffffffffffffffffffff1614156107d6576040517f08c379a00000000000000000000000000000000000000000000000000000000081526004016107cd9061166a565b60405180910390fd5b600073ffffffffffffffffffffffffffffffffffffffff168273ffffffffffffffffffffffffffffffffffffffff161415610846576040517f08c379a000000000000000000000000000000000000000000000000000000000815260040161083d906115ca565b60405180910390fd5b80600160008573ffffffffffffffffffffffffffffffffffffffff1673ffffffffffffffffffffffffffffffffffffffff16815260200190815260200160002060008473ffffffffffffffffffffffffffffffffffffffff1673ffffffffffffffffffffffffffffffffffffffff168152602001908152602001600020819055508173ffffffffffffffffffffffffffffffffffffffff168373ffffffffffffffffffffffffffffffffffffffff167f8c5be1e5ebec7d5bd14f71427d1e84f3dd0314c0f7b2291e5b200ac8c7c3b9258360405161092491906116ea565b60405180910390a3505050565b600061093d84846106d7565b90507fffffffffffffffffffffffffffffffffffffffffffffffffffffffffffffffff81146109b757818110156109a9576040517f08c379a00000000000000000000000000000000000000000000000000000000081526004016109a0906115ea565b60405180910390fd5b6109b68484848403610766565b5b50505050565b600073ffffffffffffffffffffffffffffffffffffffff168373ffffffffffffffffffffffffffffffffffffffff161415610a2d576040517f08c379a0000000000000000000000000000000000000000000000000000000008152600401610a249061164a565b60405180910390fd5b600073ffffffffffffffffffffffffffffffffffffffff168273ffffffffffffffffffffffffffffffffffffffff161415610a9d576040517f08c379a0000000000000000000000000000000000000000000000000000000008152600401610a949061158a565b60405180910390fd5b610aa8838383610f5a565b60008060008573ffffffffffffffffffffffffffffffffffffffff1673ffffffffffffffffffffffffffffffffffffffff16815260200190815260200160002054905081811015610b2e576040517f08c379a0000000000000000000000000000000000000000000000000000000008152600401610b259061160a565b60405180910390fd5b8181036000808673ffffffffffffffffffffffffffffffffffffffff1673ffffffffffffffffffffffffffffffffffffffff16815260200190815260200160002081905550816000808573ffffffffffffffffffffffffffffffffffffffff1673ffffffffffffffffffffffffffffffffffffffff168152602001908152602001600020600082825401925050819055508273ffffffffffffffffffffffffffffffffffffffff168473ffffffffffffffffffffffffffffffffffffffff167fddf252ad1be2c89b69c2b068fc378daa952ba7f163c4a11628f55a4df523b3ef84604051610c1c91906116ea565b60405180910390a3610c2f848484610f5f565b50505050565b600073ffffffffffffffffffffffffffffffffffffffff168273ffffffffffffffffffffffffffffffffffffffff161415610ca5576040517f08c379a0000000000000000000000000000000000000000000000000000000008152600401610c9c906116ca565b60405180910390fd5b610cb160008383610f5a565b8060026000828254610cc3919061173c565b92505081905550806000808473ffffffffffffffffffffffffffffffffffffffff1673ffffffffffffffffffffffffffffffffffffffff168152602001908152602001600020600082825401925050819055508173ffffffffffffffffffffffffffffffffffffffff16600073ffffffffffffffffffffffffffffffffffffffff167fddf252ad1be2c89b69c2b068fc378daa952ba7f163c4a11628f55a4df523b3ef83604051610d7491906116ea565b60405180910390a3610d8860008383610f5f565b5050565b600073ffffffffffffffffffffffffffffffffffffffff168273ffffffffffffffffffffffffffffffffffffffff161415610dfc576040517f08c379a0000000000000000000000000000000000000000000000000000000008152600401610df39061162a565b60405180910390fd5b610e0882600083610f5a565b60008060008473ffffffffffffffffffffffffffffffffffffffff1673ffffffffffffffffffffffffffffffffffffffff16815260200190815260200160002054905081811015610e8e576040517f08c379a0000000000000000000000000000000000000000000000000000000008152600401610e85906115aa565b60405180910390fd5b8181036000808573ffffffffffffffffffffffffffffffffffffffff1673ffffffffffffffffffffffffffffffffffffffff1681526020019081526020016000208190555081600260008282540392505081905550600073ffffffffffffffffffffffffffffffffffffffff168373ffffffffffffffffffffffffffffffffffffffff167fddf252ad1be2c89b69c2b068fc378daa952ba7f163c4a11628f55a4df523b3ef84604051610f4191906116ea565b60405180910390a3610f5583600084610f5f565b505050565b505050565b505050565b600081359050610f73816118bb565b92915050565b600081359050610f88816118d2565b92915050565b600060208284031215610fa057600080fd5b6000610fae84828501610f64565b91505092915050565b60008060408385031215610fca57600080fd5b6000610fd885828601610f64565b9250506020610fe985828601610f64565b9150509250929050565b60008060006060848603121561100857600080fd5b600061101686828701610f64565b935050602061102786828701610f64565b925050604061103886828701610f79565b9150509250925092565b6000806040838503121561105557600080fd5b600061106385828601610f64565b925050602061107485828601610f79565b9150509250929050565b60006020828403121561109057600080fd5b600061109e84828501610f79565b91505092915050565b6110b081611792565b82525050565b6110bf816117a4565b82525050565b60006110d082611720565b6110da818561172b565b93506110ea8185602086016117e7565b6110f3816118aa565b840191505092915050565b600061110b60238361172b565b91507f45524332303a207472616e7366657220746f20746865207a65726f206164647260008301527f65737300000000000000000000000000000000000000000000000000000000006020830152604082019050919050565b600061117160228361172b565b91507f45524332303a206275726e20616d6f756e7420657863656564732062616c616e60008301527f63650000000000000000000000000000000000000000000000000000000000006020830152604082019050919050565b60006111d760228361172b565b91507f45524332303a20617070726f766520746f20746865207a65726f20616464726560008301527f73730000000000000000000000000000000000000000000000000000000000006020830152604082019050919050565b600061123d601d8361172b565b91507f45524332303a20696e73756666696369656e7420616c6c6f77616e63650000006000830152602082019050919050565b600061127d60268361172b565b91507f45524332303a207472616e7366657220616d6f756e742065786365656473206260008301527f616c616e636500000000000000000000000000000000000000000000000000006020830152604082019050919050565b60006112e360218361172b565b91507f45524332303a206275726e2066726f6d20746865207a65726f2061646472657360008301527f73000000000000000000000000000000000000000000000000000000000000006020830152604082019050919050565b600061134960258361172b565b91507f45524332303a207472616e736665722066726f6d20746865207a65726f20616460008301527f64726573730000000000000000000000000000000000000000000000000000006020830152604082019050919050565b60006113af60248361172b565b91507f45524332303a20617070726f76652066726f6d20746865207a65726f2061646460008301527f72657373000000000000000000000000000000000000000000000000000000006020830152604082019050919050565b600061141560268361172b565b91507f4f776e61626c65236f6e6c794f776e65723a2053454e4445525f49535f4e4f5460008301527f5f4f574e455200000000000000000000000000000000000000000000000000006020830152604082019050919050565b600061147b60258361172b565b91507f45524332303a2064656372656173656420616c6c6f77616e63652062656c6f7760008301527f207a65726f0000000000000000000000000000000000000000000000000000006020830152604082019050919050565b60006114e1601f8361172b565b91507f45524332303a206d696e7420746f20746865207a65726f2061646472657373006000830152602082019050919050565b61151d816117d0565b82525050565b61152c816117da565b82525050565b600060208201905061154760008301846110a7565b92915050565b600060208201905061156260008301846110b6565b92915050565b6000602082019050818103600083015261158281846110c5565b905092915050565b600060208201905081810360008301526115a3816110fe565b9050919050565b600060208201905081810360008301526115c381611164565b9050919050565b600060208201905081810360008301526115e3816111ca565b9050919050565b6000602082019050818103600083015261160381611230565b9050919050565b6000602082019050818103600083015261162381611270565b9050919050565b60006020820190508181036000830152611643816112d6565b9050919050565b600060208201905081810360008301526116638161133c565b9050919050565b60006020820190508181036000830152611683816113a2565b9050919050565b600060208201905081810360008301526116a381611408565b9050919050565b600060208201905081810360008301526116c38161146e565b9050919050565b600060208201905081810360008301526116e3816114d4565b9050919050565b60006020820190506116ff6000830184611514565b92915050565b600060208201905061171a6000830184611523565b92915050565b600081519050919050565b600082825260208201905092915050565b6000611747826117d0565b9150611752836117d0565b9250827fffffffffffffffffffffffffffffffffffffffffffffffffffffffffffffffff038211156117875761178661184c565b5b828201905092915050565b600061179d826117b0565b9050919050565b60008115159050919050565b600073ffffffffffffffffffffffffffffffffffffffff82169050919050565b6000819050919050565b600060ff82169050919050565b60005b838110156118055780820151818401526020810190506117ea565b83811115611814576000848401525b50505050565b6000600282049050600182168061183257607f821691505b602082108114156118465761184561187b565b5b50919050565b7f4e487b7100000000000000000000000000000000000000000000000000000000600052601160045260246000fd5b7f4e487b7100000000000000000000000000000000000000000000000000000000600052602260045260246000fd5b6000601f19601f8301169050919050565b6118c481611792565b81146118cf57600080fd5b50565b6118db816117d0565b81146118e657600080fd5b5056fea26469706673582212202ffb07341d9b3057ad740aae0ede8ed68e30839e180f5946cb65fe190f2e403164736f6c63430008000033a26469706673582212205e8b2ec62349604b6f2fa142470bf5bbfd2725f363b46a72db956b8237e48c9a64736f6c6343000800003360806040523480156200001157600080fd5b5060405162001f9e38038062001f9e833981810160405281019062000037919062000428565b33336040518060400160405280600481526020017f55534443000000000000000000000000000000000000000000000000000000008152506040518060400160405280600481526020017f55534443000000000000000000000000000000000000000000000000000000008152508160039080519060200190620000bd9291906200034a565b508060049080519060200190620000d69291906200034a565b50505080600560006101000a81548173ffffffffffffffffffffffffffffffffffffffff021916908373ffffffffffffffffffffffffffffffffffffffff16021790555081600660006101000a81548173ffffffffffffffffffffffffffffffffffffffff021916908373ffffffffffffffffffffffffffffffffffffffff1602179055508073ffffffffffffffffffffffffffffffffffffffff16600073ffffffffffffffffffffffffffffffffffffffff167f8be0079c531659141344cd1fd0a4f28419497f9722a3daafe3b4186f6b6457e060405160405180910390a35050620001ca8183620001d260201b60201c565b50506200066f565b600073ffffffffffffffffffffffffffffffffffffffff168273ffffffffffffffffffffffffffffffffffffffff16141562000245576040517f08c379a00000000000000000000000000000000000000000000000000000000081526004016200023c90620004bc565b60405180910390fd5b62000259600083836200034060201b60201c565b80600260008282546200026d91906200050c565b92505081905550806000808473ffffffffffffffffffffffffffffffffffffffff1673ffffffffffffffffffffffffffffffffffffffff168152602001908152602001600020600082825401925050819055508173ffffffffffffffffffffffffffffffffffffffff16600073ffffffffffffffffffffffffffffffffffffffff167fddf252ad1be2c89b69c2b068fc378daa952ba7f163c4a11628f55a4df523b3ef83604051620003209190620004de565b60405180910390a36200033c600083836200034560201b60201c565b5050565b505050565b505050565b8280546200035890620005a7565b90600052602060002090601f0160209004810192826200037c5760008555620003c8565b82601f106200039757805160ff1916838001178555620003c8565b82800160010185558215620003c8579182015b82811115620003c7578251825591602001919060010190620003aa565b5b509050620003d79190620003db565b5090565b5b80821115620003f6576000816000905550600101620003dc565b5090565b6000815190506200040b816200063b565b92915050565b600081519050620004228162000655565b92915050565b600080604083850312156200043c57600080fd5b60006200044c8582860162000411565b92505060206200045f85828601620003fa565b9150509250929050565b600062000478601f83620004fb565b91507f45524332303a206d696e7420746f20746865207a65726f2061646472657373006000830152602082019050919050565b620004b6816200059d565b82525050565b60006020820190508181036000830152620004d78162000469565b9050919050565b6000602082019050620004f56000830184620004ab565b92915050565b600082825260208201905092915050565b600062000519826200059d565b915062000526836200059d565b9250827fffffffffffffffffffffffffffffffffffffffffffffffffffffffffffffffff038211156200055e576200055d620005dd565b5b828201905092915050565b600062000576826200057d565b9050919050565b600073ffffffffffffffffffffffffffffffffffffffff82169050919050565b6000819050919050565b60006002820490506001821680620005c057607f821691505b60208210811415620005d757620005d66200060c565b5b50919050565b7f4e487b7100000000000000000000000000000000000000000000000000000000600052601160045260246000fd5b7f4e487b7100000000000000000000000000000000000000000000000000000000600052602260045260246000fd5b620006468162000569565b81146200065257600080fd5b50565b62000660816200059d565b81146200066c57600080fd5b50565b61191f806200067f6000396000f3fe608060405234801561001057600080fd5b50600436106100f55760003560e01c806340c10f191161009757806395d89b411161006657806395d89b4114610288578063a457c2d7146102a6578063a9059cbb146102d6578063dd62ed3e14610306576100f5565b806340c10f191461020257806342966c681461021e57806370a082311461023a578063893d20e81461026a576100f5565b806318160ddd116100d357806318160ddd1461016657806323b872dd14610184578063313ce567146101b457806339509351146101d2576100f5565b806306fdde03146100fa578063095ea7b3146101185780630ee2cb1014610148575b600080fd5b610102610336565b60405161010f9190611568565b60405180910390f35b610132600480360381019061012d9190611042565b6103c8565b60405161013f919061154d565b60405180910390f35b6101506103eb565b60405161015d9190611532565b60405180910390f35b61016e610415565b60405161017b91906116ea565b60405180910390f35b61019e60048036038101906101999190610ff3565b61041f565b6040516101ab919061154d565b60405180910390f35b6101bc61044e565b6040516101c99190611705565b60405180910390f35b6101ec60048036038101906101e79190611042565b610457565b6040516101f9919061154d565b60405180910390f35b61021c60048036038101906102179190611042565b61048e565b005b6102386004803603810190610233919061107e565b61052c565b005b610254600480360381019061024f9190610f8e565b610539565b60405161026191906116ea565b60405180910390f35b610272610581565b60405161027f9190611532565b60405180910390f35b6102906105ab565b60405161029d9190611568565b60405180910390f35b6102c060048036038101906102bb9190611042565b61063d565b6040516102cd919061154d565b60405180910390f35b6102f060048036038101906102eb9190611042565b6106b4565b6040516102fd919061154d565b60405180910390f35b610320600480360381019061031b9190610fb7565b6106d7565b60405161032d91906116ea565b60405180910390f35b6060600380546103459061181a565b80601f01602080910402602001604051908101604052809291908181526020018280546103719061181a565b80156103be5780601f10610393576101008083540402835291602001916103be565b820191906000526020600020905b8154815290600101906020018083116103a157829003601f168201915b5050505050905090565b6000806103d361075e565b90506103e0818585610766565b600191505092915050565b6000600660009054906101000a900473ffffffffffffffffffffffffffffffffffffffff16905090565b6000600254905090565b60008061042a61075e565b9050610437858285610931565b6104428585856109bd565b60019150509392505050565b60006006905090565b60008061046261075e565b905061048381858561047485896106d7565b61047e919061173c565b610766565b600191505092915050565b600560009054906101000a900473ffffffffffffffffffffffffffffffffffffffff1673ffffffffffffffffffffffffffffffffffffffff163373ffffffffffffffffffffffffffffffffffffffff161461051e576040517f08c379a00000000000000000000000000000000000000000000000000000000081526004016105159061168a565b60405180910390fd5b6105288282610c35565b5050565b6105363382610d8c565b50565b60008060008373ffffffffffffffffffffffffffffffffffffffff1673ffffffffffffffffffffffffffffffffffffffff168152602001908152602001600020549050919050565b6000600560009054906101000a900473ffffffffffffffffffffffffffffffffffffffff16905090565b6060600480546105ba9061181a565b80601f01602080910402602001604051908101604052809291908181526020018280546105e69061181a565b80156106335780601f1061060857610100808354040283529160200191610633565b820191906000526020600020905b81548152906001019060200180831161061657829003601f168201915b5050505050905090565b60008061064861075e565b9050600061065682866106d7565b90508381101561069b576040517f08c379a0000000000000000000000000000000000000000000000000000000008152600401610692906116aa565b60405180910390fd5b6106a88286868403610766565b60019250505092915050565b6000806106bf61075e565b90506106cc8185856109bd565b600191505092915050565b6000600160008473ffffffffffffffffffffffffffffffffffffffff1673ffffffffffffffffffffffffffffffffffffffff16815260200190815260200160002060008373ffffffffffffffffffffffffffffffffffffffff1673ffffffffffffffffffffffffffffffffffffffff16815260200190815260200160002054905092915050565b600033905090565b600073ffffffffffffffffffffffffffffffffffffffff168373ffffffffffffffffffffffffffffffffffffffff1614156107d6576040517f08c379a00000000000000000000000000000000000000000000000000000000081526004016107cd9061166a565b60405180910390fd5b600073ffffffffffffffffffffffffffffffffffffffff168273ffffffffffffffffffffffffffffffffffffffff161415610846576040517f08c379a000000000000000000000000000000000000000000000000000000000815260040161083d906115ca565b60405180910390fd5b80600160008573ffffffffffffffffffffffffffffffffffffffff1673ffffffffffffffffffffffffffffffffffffffff16815260200190815260200160002060008473ffffffffffffffffffffffffffffffffffffffff1673ffffffffffffffffffffffffffffffffffffffff168152602001908152602001600020819055508173ffffffffffffffffffffffffffffffffffffffff168373ffffffffffffffffffffffffffffffffffffffff167f8c5be1e5ebec7d5bd14f71427d1e84f3dd0314c0f7b2291e5b200ac8c7c3b9258360405161092491906116ea565b60405180910390a3505050565b600061093d84846106d7565b90507fffffffffffffffffffffffffffffffffffffffffffffffffffffffffffffffff81146109b757818110156109a9576040517f08c379a00000000000000000000000000000000000000000000000000000000081526004016109a0906115ea565b60405180910390fd5b6109b68484848403610766565b5b50505050565b600073ffffffffffffffffffffffffffffffffffffffff168373ffffffffffffffffffffffffffffffffffffffff161415610a2d576040517f08c379a0000000000000000000000000000000000000000000000000000000008152600401610a249061164a565b60405180910390fd5b600073ffffffffffffffffffffffffffffffffffffffff168273ffffffffffffffffffffffffffffffffffffffff161415610a9d576040517f08c379a0000000000000000000000000000000000000000000000000000000008152600401610a949061158a565b60405180910390fd5b610aa8838383610f5a565b60008060008573ffffffffffffffffffffffffffffffffffffffff1673ffffffffffffffffffffffffffffffffffffffff16815260200190815260200160002054905081811015610b2e576040517f08c379a0000000000000000000000000000000000000000000000000000000008152600401610b259061160a565b60405180910390fd5b8181036000808673ffffffffffffffffffffffffffffffffffffffff1673ffffffffffffffffffffffffffffffffffffffff16815260200190815260200160002081905550816000808573ffffffffffffffffffffffffffffffffffffffff1673ffffffffffffffffffffffffffffffffffffffff168152602001908152602001600020600082825401925050819055508273ffffffffffffffffffffffffffffffffffffffff168473ffffffffffffffffffffffffffffffffffffffff167fddf252ad1be2c89b69c2b068fc378daa952ba7f163c4a11628f55a4df523b3ef84604051610c1c91906116ea565b60405180910390a3610c2f848484610f5f565b50505050565b600073ffffffffffffffffffffffffffffffffffffffff168273ffffffffffffffffffffffffffffffffffffffff161415610ca5576040517f08c379a0000000000000000000000000000000000000000000000000000000008152600401610c9c906116ca565b60405180910390fd5b610cb160008383610f5a565b8060026000828254610cc3919061173c565b92505081905550806000808473ffffffffffffffffffffffffffffffffffffffff1673ffffffffffffffffffffffffffffffffffffffff168152602001908152602001600020600082825401925050819055508173ffffffffffffffffffffffffffffffffffffffff16600073ffffffffffffffffffffffffffffffffffffffff167fddf252ad1be2c89b69c2b068fc378daa952ba7f163c4a11628f55a4df523b3ef83604051610d7491906116ea565b60405180910390a3610d8860008383610f5f565b5050565b600073ffffffffffffffffffffffffffffffffffffffff168273ffffffffffffffffffffffffffffffffffffffff161415610dfc576040517f08c379a0000000000000000000000000000000000000000000000000000000008152600401610df39061162a565b60405180910390fd5b610e0882600083610f5a565b60008060008473ffffffffffffffffffffffffffffffffffffffff1673ffffffffffffffffffffffffffffffffffffffff16815260200190815260200160002054905081811015610e8e576040517f08c379a0000000000000000000000000000000000000000000000000000000008152600401610e85906115aa565b60405180910390fd5b8181036000808573ffffffffffffffffffffffffffffffffffffffff1673ffffffffffffffffffffffffffffffffffffffff1681526020019081526020016000208190555081600260008282540392505081905550600073ffffffffffffffffffffffffffffffffffffffff168373ffffffffffffffffffffffffffffffffffffffff167fddf252ad1be2c89b69c2b068fc378daa952ba7f163c4a11628f55a4df523b3ef84604051610f4191906116ea565b60405180910390a3610f5583600084610f5f565b505050565b505050565b505050565b600081359050610f73816118bb565b92915050565b600081359050610f88816118d2565b92915050565b600060208284031215610fa057600080fd5b6000610fae84828501610f64565b91505092915050565b60008060408385031215610fca57600080fd5b6000610fd885828601610f64565b9250506020610fe985828601610f64565b9150509250929050565b60008060006060848603121561100857600080fd5b600061101686828701610f64565b935050602061102786828701610f64565b925050604061103886828701610f79565b9150509250925092565b6000806040838503121561105557600080fd5b600061106385828601610f64565b925050602061107485828601610f79565b9150509250929050565b60006020828403121561109057600080fd5b600061109e84828501610f79565b91505092915050565b6110b081611792565b82525050565b6110bf816117a4565b82525050565b60006110d082611720565b6110da818561172b565b93506110ea8185602086016117e7565b6110f3816118aa565b840191505092915050565b600061110b60238361172b565b91507f45524332303a207472616e7366657220746f20746865207a65726f206164647260008301527f65737300000000000000000000000000000000000000000000000000000000006020830152604082019050919050565b600061117160228361172b565b91507f45524332303a206275726e20616d6f756e7420657863656564732062616c616e60008301527f63650000000000000000000000000000000000000000000000000000000000006020830152604082019050919050565b60006111d760228361172b565b91507f45524332303a20617070726f766520746f20746865207a65726f20616464726560008301527f73730000000000000000000000000000000000000000000000000000000000006020830152604082019050919050565b600061123d601d8361172b565b91507f45524332303a20696e73756666696369656e7420616c6c6f77616e63650000006000830152602082019050919050565b600061127d60268361172b565b91507f45524332303a207472616e7366657220616d6f756e742065786365656473206260008301527f616c616e636500000000000000000000000000000000000000000000000000006020830152604082019050919050565b60006112e360218361172b565b91507f45524332303a206275726e2066726f6d20746865207a65726f2061646472657360008301527f73000000000000000000000000000000000000000000000000000000000000006020830152604082019050919050565b600061134960258361172b565b91507f45524332303a207472616e736665722066726f6d20746865207a65726f20616460008301527f64726573730000000000000000000000000000000000000000000000000000006020830152604082019050919050565b60006113af60248361172b565b91507f45524332303a20617070726f76652066726f6d20746865207a65726f2061646460008301527f72657373000000000000000000000000000000000000000000000000000000006020830152604082019050919050565b600061141560268361172b565b91507f4f776e61626c65236f6e6c794f776e65723a2053454e4445525f49535f4e4f5460008301527f5f4f574e455200000000000000000000000000000000000000000000000000006020830152604082019050919050565b600061147b60258361172b565b91507f45524332303a2064656372656173656420616c6c6f77616e63652062656c6f7760008301527f207a65726f0000000000000000000000000000000000000000000000000000006020830152604082019050919050565b60006114e1601f8361172b565b91507f45524332303a206d696e7420746f20746865207a65726f2061646472657373006000830152602082019050919050565b61151d816117d0565b82525050565b61152c816117da565b82525050565b600060208201905061154760008301846110a7565b92915050565b600060208201905061156260008301846110b6565b92915050565b6000602082019050818103600083015261158281846110c5565b905092915050565b600060208201905081810360008301526115a3816110fe565b9050919050565b600060208201905081810360008301526115c381611164565b9050919050565b600060208201905081810360008301526115e3816111ca565b9050919050565b6000602082019050818103600083015261160381611230565b9050919050565b6000602082019050818103600083015261162381611270565b9050919050565b60006020820190508181036000830152611643816112d6565b9050919050565b600060208201905081810360008301526116638161133c565b9050919050565b60006020820190508181036000830152611683816113a2565b9050919050565b600060208201905081810360008301526116a381611408565b9050919050565b600060208201905081810360008301526116c38161146e565b9050919050565b600060208201905081810360008301526116e3816114d4565b9050919050565b60006020820190506116ff6000830184611514565b92915050565b600060208201905061171a6000830184611523565b92915050565b600081519050919050565b600082825260208201905092915050565b6000611747826117d0565b9150611752836117d0565b9250827fffffffffffffffffffffffffffffffffffffffffffffffffffffffffffffffff038211156117875761178661184c565b5b828201905092915050565b600061179d826117b0565b9050919050565b60008115159050919050565b600073ffffffffffffffffffffffffffffffffffffffff82169050919050565b6000819050919050565b600060ff82169050919050565b60005b838110156118055780820151818401526020810190506117ea565b83811115611814576000848401525b50505050565b6000600282049050600182168061183257607f821691505b602082108114156118465761184561187b565b5b50919050565b7f4e487b7100000000000000000000000000000000000000000000000000000000600052601160045260246000fd5b7f4e487b7100000000000000000000000000000000000000000000000000000000600052602260045260246000fd5b6000601f19601f8301169050919050565b6118c481611792565b81146118cf57600080fd5b50565b6118db816117d0565b81146118e657600080fd5b5056fea26469706673582212202ffb07341d9b3057ad740aae0ede8ed68e30839e180f5946cb65fe190f2e403164736f6c63430008000033",
  "immutableReferences": {},
  "source": "// SPDX-License-Identifier: MIT\npragma solidity ^0.8.0;\n\nimport \"./Ownable.sol\";\nimport \"./USDC.sol\";\n\ncontract USDCFaucet is Ownable {\n    USDCToken internal _usdc;\n    mapping(address => uint) internal lastRequestedMap;\n    uint internal timeout;\n    uint256 internal faucetAmount;\n    constructor (uint256 _vendAmount) Ownable(msg.sender, msg.sender) {\n        _usdc = new USDCToken(_vendAmount*10000000, address(this));\n        faucetAmount = _vendAmount;\n        timeout = 10 hours;\n    }\n\n\n    modifier cooldown {\n        require(block.timestamp >= (lastRequestedMap[msg.sender]+timeout), \"Cooldown 10 hours have not passed\");\n        _;\n    }\n\n    modifier balanceAvailable(uint256 balance) {\n        require(_usdc.balanceOf(address(this))>=balance, \"not enough balance, ping @__spongeboi\");\n        _;\n    }\n\n    function request() public cooldown balanceAvailable(faucetAmount) {\n        _usdc.transfer(msg.sender, faucetAmount);\n        lastRequestedMap[msg.sender] =  block.timestamp;\n    }\n\n    function forceWithdraw(address to, uint256 amount) public onlyOwner balanceAvailable(amount){\n        _usdc.transfer(to, amount);\n    }\n\n    function balanceLeft() external view returns(uint256) {\n        return _usdc.balanceOf(address(this));\n    }\n\n    function newUSDCAddr() external onlyOwner {\n        _usdc = new USDCToken(faucetAmount*10000000, address(this));\n    }\n\n    function _mint(uint256 amount) internal {\n        _usdc.mint(address(this), amount);\n    }\n\n    function increaseSupply(uint256 amount) public onlyOwner {\n        _mint(amount);\n    }\n\n    function changeFaucetAmount(uint256 amount) public onlyOwner {\n        faucetAmount = amount;\n    }\n}\n",
  "sourcePath": "/Users/shubhaankar/github.com/Shubhaankar-Sharma/util-contracts/contracts/Faucet.sol",
  "compiler": {
    "name": "solc",
    "version": "0.8.0+commit.c7dfd78e.Emscripten.clang"
  },
  "schemaVersion": "3.4.11",
  "updatedAt": "2023-01-01T00:10:56.134Z",
  "devdoc": {
    "kind": "dev",
    "methods": {},
    "version": 1
  },
  "userdoc": {
    "kind": "user",
    "methods": {},
    "version": 1
  }
}